:020000040800F2
:10000000F004002001010008090100080B010008AC
:100010000D0100080F010008110100080000000098
:1000200000000000000000000000000013010008B4
:100030001501000800000000170100081901000860
:100040001B0100081B0100081B0100081B01000820
:100050001B0100081B0100081B0100081B01000810
:100060001B0100081B0100081B0100081B01000800
:100070001B0100081B0100081B0100081B010008F0
:100080001B0100081B0100081B0100081B010008E0
:100090001B0100081B0100081B0100081B010008D0
:1000A0001B0100081B0100081B0100081B010008C0
:1000B000310700081B010008000000001B010008B8
:1000C0001B01000800000000000000001B010008E8
:1000D00000000000C50800081B0100080000000027
:1000E0001B0100081B0100081B010008DFF80CD0F1
:1000F00000F02AF800480047B50B0008F004002083
:100100000648804706480047FEE7FEE7FEE7FEE7B1
:10011000FEE7FEE7FEE7FEE7FEE7FEE72106000852
:10012000ED00000840EA01039B0703D009E008C97D
:10013000121F08C0042AFAD203E011F8013B00F8AC
:10014000013B521EF9D270471CB50948009009487E
:1001500001900546009C06E0E06840F0010394E849
:10016000070098471034AC42F6D3FFF7C3FF0000F6
:100170002C0D00084C0D0008002808BF704710B572
:100180004EF2100141F6401CCEF20001C0F2010C0B
:100190004FF0000E05220423C1F804C0C1F808E0A6
:1001A0000A6000BF0C68E403FCD501380B60F3D192
:1001B000BDE8104070470000034600284FF00100E2
:1001C00018BF002900D1704780B51846032300F0FE
:1001D0004DFC0020BDE880407047000080B5002342
:1001E00000F044FC002080BD80B500F0B5FC00208C
:1001F00080BD0000CA7802F00F0CD30644BF8B7894
:100200004CEA030C2DE9F04709880B0625D08246FD
:100210005AF8144B00F1100E00254FF001094FF071
:100220000F08002706E000BF1E600137082F05F108
:10023000040511D009FA07F60E42F6D008FA05F3C4
:1002400024EA03030CFA05F41C43282A5346EBD096
:10025000482AEAD17346E7E70460B1F5807F38BFEA
:10026000BDE8F087436800F1100E00F11409002585
:100270004FF4807A4FF00F08002705E03460013713
:10028000082F05F1040512D00AFA07F404EA010662
:10029000A642F4D108FA05F6B3430CFA05F6334347
:1002A000282A4E46EAD0482AE9D17646E6E7436056
:1002B000BDE8F0878068084018BF01207047000043
:1002C000416170470161704710B5C17800294EF255
:1002D0000011CEF200011AD04EF60C52CEF20002FE
:1002E0001268072323EA12220F23C2F1040C23FA17
:1002F00002F24378847890F800E003FA0CF322408D
:100300001A43120101EB0E0383F8002300E0803151
:100310000078012300F01F0203FA02F2C0F342103A
:1003200041F8202010BD000040F080604EF60C51D6
:1003300040F0FD70CEF200010860704710B540F249
:10034000430CC2F2000C9CF800E0BEF1030F3DD854
:10035000DFE80EF0023E0E2AEF284ED101208CF885
:10036000000040F24000C2F200000021017010BD08
:1003700040F2410EC2F2000E9EF800305A1C8EF878
:100380000020C85440F2400140F24203C2F2000192
:10039000C2F20003D4B20A781B7810449C42087061
:1003A00038BF10BD032026E040F24001C2F2000138
:1003B00040F242030978C2F200031B780024814214
:1003C00018BF234613708CF8004010BD002012E0C7
:1003D00040F24002C2F2000240F242011378C2F23F
:1003E000000108701844107040F24100C2F2000091
:1003F0000021017002208CF8000010BDB0B54469E6
:100400009CB1054605C8EB6802FB03030846194684
:10041000FFF788FED5E902010131B1FBF0F202FBE2
:1004200010106969E860481E6861002C18BF01243B
:100430002046B0BD70B585684669AE4211D204460B
:1004400005C8236902FB0300FFF76CFED4E9040131
:10045000A2680130B0FBF2F3013103FB1200C4E9E2
:1004600004010020AE4238BF012070BD4FF0000CE7
:1004700080E80E10C0E904CC70470000002941F26A
:100480001C01C4F202010A680CBF22EA00001043FA
:1004900008607047002941F21801C4F202010A689D
:1004A0000CBF22EA000010430860704710B541F20B
:1004B0000404C4F20204226802F00C02082A41F289
:1004C0000022C0F27A0212D12368D4F800C0C3F32C
:1004D000834E5FEACC330EF1020C02D523689B03F6
:1004E00003D540F60012C0F23D020CFB02F202609E
:1004F000226840F61C53C2F30312C0F600039A5C54
:100500000168D14041602268C2F302229A5C21FA5C
:1005100002F282602268C2F3C2229A5C40F618534B
:10052000D140C1602268C0F60003C2F381329A5CF8
:10053000B1FBF2F1016110BD40F24501C2F20001D0
:10054000087801284FF0000004BF087001207047B0
:10055000F0B587B005464FF480400121FFF79AFFC0
:1005600004200121FFF796FF43F6000440F200202B
:10057000C4F20104C1F60300A4F5405606AF06908C
:1005800030463946FFF736FE40F20040C4F603001D
:10059000069030463946FFF72DFE00204FF44021EB
:1005A000ADF81400CDE9030102A92046029500F040
:1005B000F9F9204640F22551012200F0DBF94FF411
:1005C000A060FFF7B1FE40F22510C0F201100190CB
:1005D00001A8FFF779FE2046012100F0A3F907B03A
:1005E000F0BD0000002908BF7047F0B581B043F6A8
:1005F00000060C460546C4F201060027E95D3046B8
:1006000000F030FA3046802100F096F90028F9D049
:100610000137A742F2D101B0BDE8F04070470000B9
:1006200082B041F20400C4F2020050F8041C00221F
:1006300041F0010140F8041C0168CFF6FF021140AF
:10064000016050F8041C4FF6FF72CFF6F6621140BD
:1006500040F8041C50F8041C21F4802140F8041CCC
:10066000016821F4FE0101604FF41F014160002187
:100670000191009150F8041C41F4803140F8041CB1
:1006800050F8041C01F400310091019901310191ED
:10069000009919B90199B1F5A06FF1D150F8041C76
:1006A000890354BF0021012100910099012936D10D
:1006B00042F20001C4F202010A6842F010020A602C
:1006C0000A6822F007020A600A6842F002020A6021
:1006D0000168016001680160016841F480610160A6
:1006E000016821F47C110160016841F4E8110160A6
:1006F00050F8041C41F0807140F8041C50F8041CB0
:100700008901FBD5016821F003010160016841F016
:1007100002010160016801F00C010829FAD14EF6CE
:100720000850CEF200004FF00061016002B0704747
:1007300080B54FF08040012100F026F8002808BF66
:1007400080BD4FF08040012100F010F840F25201CE
:10075000C2F200010888421C40F23800C2F20000D8
:100760000A80BDE88040FFF73FBD0000C943018219
:10077000704700000288002918BF012122F0010201
:100780001144018070470000028A80890A4000EA13
:10079000010018BF0122002818BF01201040704737
:1007A000002A82890CBF22EA01011143818170472E
:1007B000B0B584B00C46054601200121FFF75EFE6E
:1007C000681EADF80A00601EADF806000020ADF806
:1007D0000C00ADF808000DF106014FF0804000F06C
:1007E0001BF84FF0804001210122FFF7D9FF4FF0A5
:1007F00080400121FFF7BEFF04B0B0BD80B582B0DC
:1008000040F21C10C0F20110019001A8FFF75CFD3E
:1008100002B080BD8185704740F6FF33B0F800C05C
:10082000C4F2000398420FDCB0F1804F1ED040F2BA
:100830000043C4F20003984218D040F60003C4F20B
:100840000003984212D016E040F60043C4F20003C1
:1008500098420BD043F20043C4F20103984205D002
:1008600042F60043C4F20103984204D14B882CF0B5
:10087000700243EA020C41F2004240F48063C4F289
:100880000002934204D0CA882CF4407342EA030C5D
:10089000A0F800C08A8883058285A0F18042A2F575
:1008A000963243EA92220B88072A038507D8012350
:1008B00003FA02F212F0E50F1CBF097A018601214A
:1008C0008182704710B543F60004C4F2010420464B
:1008D00040F2255100F036F8012818BF10BD20461F
:1008E00000F0BCF840F24401C2F20001087040F28E
:1008F0004500C2F200000122027040F2D400C2F2B0
:100900000000FFF797FD204640F22551BDE810405A
:10091000AFF30080090A012202FA01F1C943018004
:10092000704700008289002918BF012122F400527B
:1009300042EA4131818170470088084018BF012098
:1009400070470000C1F34212022A06D0012A14BFE8
:1009500000F1140200F10C0201E000F11002128813
:10096000008801F01F03090ADA40C840104000F077
:1009700001007047C1F3421301F01F0C1421022B38
:1009800008BF1021012B4FF0010308BF0C21002AE2
:1009900003FA0CF243580CBF23EA02021A434250F6
:1009A0007047000070B586B00446008A0D46C988BD
:1009B00020F4405008432082A0894EF6F3110840ED
:1009C000A9882A896B89084310431843A081A08A0B
:1009D000A98920F44070084301AEA0823046FFF799
:1009E00065FD43F6000106F10800C4F201018C42E6
:1009F00008BF06F10C0000681922B4F90C1050432E
:100A00002A680123B1F1FF3FC8BF022302FA03F1B4
:100A1000B0FBF1F048F21F51C5F2EB11A0FB01232E
:100A20005A096FF0630302FB0300B4F90C3003268C
:100A3000B3F1FF3FC8BF042600FA06F000F1320010
:100A4000A0FB01014FF00700C8BF0F2000EA5110C2
:100A500040EA0210208106B070BD000080886FF36C
:100A60005F2070476FF35F2181807047032B016027
:100A7000828083716ED8B0B582B00FF20A0015463D
:100A80000C46DFE803F002321222A4F18040A0F508
:100A90008430A10541EA9020062836D840F6FC4172
:100AA000C0F6000151F8200030E0A4F18040A0F52C
:100AB0008430A10541EA902006282CD840F6FC415C
:100AC000C0F6000151F8200026E0A4F18040A0F516
:100AD0008430A10541EA9020062822D840F6FC4146
:100AE000C0F6000151F820001CE0A4F18040A0F500
:100AF0008430A10541EA9020062818D840F6FC4130
:100B0000C0F6000151F8200012E000200121FFF79B
:100B1000C1FC102010E000200121FFF7BBFC4820A1
:100B20000AE000200121FFF7B5FC042004E00020CA
:100B30000121FFF7AFFC14208DF8070003208DF88A
:100B4000060001A92046ADF80450FFF753FB02B0A0
:100B5000BDE8B0400020704710B504460068A18889
:100B6000FFF7A8FB02462068A1881AB1FFF7A8FB8F
:100B7000002010BDFFF7A6FB002010BD70B582B0AD
:100B800050F8210043F60004C4F2010400256E462B
:100B9000009000BF715D2046FFF764FF2046802172
:100BA000FFF7CAFE0028F9D00135042DF2D102B0BA
:100BB00070BD00004FF4A060FFF7B6FB40F60004E4
:100BC000C4F2010404F5806540F23800C2F200006E
:100BD00029464022FFF702FB40F23000C2F200003B
:100BE00029464FF40042FFF7F9FA40F21800C2F22A
:100BF000000021461022FFF7DFFA40F22400C2F283
:100C0000000021462022FFF7D7FA42F210704FF47D
:100C1000E15142F2107AFFF7CBFDFFF7EFFD4FF401
:100C20001650FFF795FC40F2D404C2F2000440F2E3
:100C30005401C2F20001204601228023FFF716FC76
:100C400040F2510540F2000940F2100840F2470717
:100C500040F24606C2F20005C2F200094FF0000B56
:100C6000C2F20008C2F20007C2F2000617E000BF9D
:100C700048460021FFF782FF48460121FFF77EFF2B
:100C800048460221FFF77AFF48460321FFF776FF27
:100C900040460421FFF7A6FC0A20FFF76DFAFFF794
:100CA0004BFC58B120463146FFF7A8FB30B13078F5
:100CB00039462A46FFF742FBF4E700BF28780028B0
:100CC000D6D0387885F800B0411E0829D0D8BAFBB4
:100CD000F0F14FF08040FFF79DFDC9E702E008C842
:100CE000121F08C1002AFAD170477047002001E0A6
:100CF00001C1121F002AFBD1704700000400000050
:100D0000080000001000000020000000400000006B
:100D1000800000000001000002040608000000003E
:100D2000010203040102030406070809500D00082C
:100D30000000002018000000DC0C0008680D00080E
:100D400018000020D8040000EC0C0008000000008F
:100D5000A4709D3F85EB9140E17AFC408FC2F53D48
:080D60000000807F000000008C
:04000005080000ED02
:00000001FF
